:040000003EEF00F0DF
:100008004382FACF19F0FBCF1AF0D9CF1BF0DACF21
:100018001CF0F2AA12EF00F014EF00F01DEF00F050
:10002800F2A419EF00F01BEF00F01DEF00F0E0EC78
:1000380028F0F2AC22EF00F024EF00F034EF00F0EB
:100048009DA029EF00F02BEF00F034EF00F09EA008
:1000580030EF00F032EF00F034EF00F0BEEC28F0A3
:100068001CC0DAFF1BC0D9FF1AC0FBFF19C0FAFF7A
:100078004392110061EF24F000C31DF001C31EF08C
:10008800000E206E0A0E1F6EFDEC25F01DC076F3E3
:100098001EC077F302C31DF003C31EF0000E206ECE
:1000A8000A0E1F6EFDEC25F01DC078F31EC079F313
:1000B80004C31DF005C31EF0000E206E0A0E1F6E4D
:1000C800FDEC25F01DC07AF31EC07BF306C31DF0BE
:1000D80007C31EF0000E206E0A0E1F6EFDEC25F001
:1000E8001DC07CF31EC07DF318C31DF019C31EF09C
:1000F800000E206E140E1F6EFDEC25F01DC07EF361
:100108001EC07FF3000E0001646F000E656F000EC5
:10011800666F000E676F080E616F000E606F000E4D
:10012800626F000E6C6F000E6D6F000E6E6F000E2A
:100138006F6F000E706F000E716F000E726F000E01
:10014800736F76C300F177C301F10101026B036B92
:1001580000C16CF101C16DF102C16EF103C16FF113
:100168006F516E1109E1200E6D5DD8A0BEEF00F051
:10017800C0EF00F0C5EF00F01F0EA96FA869C9EF26
:1001880000F06CC1A8F16DC1A9F100016C51010129
:10019800A81100016C6F0101A9511F0B00016D111D
:1001A8006D6F78C304F179C305F10101066B076B24
:1001B80004C170F105C171F106C172F107C173F193
:1001C8007351721109E1200E715DD8A0EEEF00F0B5
:1001D800F0EF00F0F5EF00F01F0EBB6FBA69F9EF12
:1001E80000F070C1BAF171C1BBF1BAC124F0070EB9
:1001F8002416050E256ED8902436252EFFEF00F024
:10020800245000016D116D6FBAC124F0BBC125F0F7
:10021800D89025322432D89025322432D8902532ED
:10022800243224506E116E6FBAC124F0BBC125F080
:100238000B0E266ED89025322432262E1EEF01F0A2
:100248002450030B6F116F6F000E0101746F000EC5
:10025800756F000E766F000E776F7AC308F17BC357
:1002680009F10A6B0B6B08C174F109C175F10AC178
:1002780076F10BC177F17751761109E1200E755DA2
:10028800D8A049EF01F04BEF01F050EF01F01F0E3D
:10029800AB6FAA6954EF01F074C1AAF175C1ABF153
:1002A800AAC124F03F0E2416D8902436D8902434BE
:1002B80000016F116F6FAAC124F0ABC125F0060EC3
:1002C800266ED89025322432262E65EF01F0245070
:1002D8007F0B7011706F000E0101786F000E796F3F
:1002E800000E7A6F000E7B6F7CC30CF17DC30DF19D
:1002F8000E6B0F6B0CC178F10DC179F10EC17AF15B
:100308000FC17BF17B517A1109E1200E795DD8A0EC
:1003180090EF01F092EF01F097EF01F01F0EBD6F23
:10032800BC699BEF01F078C1BCF179C1BDF1BCC1DA
:1003380024F0010E2416000E24B0800E246E2450E2
:1003480000017011706FD8900101BD31256EBC316C
:10035800246E245000017111716FBCC124F0BDC11D
:1003680025F0090E266ED89025322432262EB7EFB6
:1003780001F024500F0B7211726F000E01017C6F97
:10038800000E7D6F000E7E6F000E7F6F7EC310F132
:100398007FC311F1126B136B10C17CF111C17DF198
:1003A80012C17EF113C17FF17F517E1109E1100E58
:1003B8007D5DD8A0E2EF01F0E4EF01F0E9EF01F094
:1003C8000F0EAD6FAC69EDEF01F07CC1ACF17DC1F2
:1003D800ADF1ACC124F00F0E24162438F00B000147
:1003E8007211726FACC124F0ADC125F0040E266EF7
:1003F800D89025322432262EFCEF01F024507311B8
:10040800736F08C31DF009C31EF0000E206E0A0E9C
:100418001F6EFDEC25F01DC080F31EC081F30AC3DA
:100428001DF00BC31EF0000E206E0A0E1F6EFDECB1
:1004380025F01DC082F31EC083F30CC31DF00DC34D
:100448001EF0000E206E0A0E1F6EFDEC25F01DC07A
:1004580084F31EC085F30EC31DF00FC31EF0000EFB
:10046800206E0A0E1F6EFDEC25F01DC086F31EC01F
:1004780087F31AC31DF01BC31EF0000E206E140E66
:100488001F6EFDEC25F01DC088F31EC089F3000E19
:100498000001786F000E796F000E7A6F000E7B6F87
:1004A800080E756F000E746F000E766F000E806F69
:1004B800000E816F000E826F000E836F000E846F36
:1004C800000E856F000E866F000E876F000E01010B
:1004D800806F000E816F000E826F000E836F80C3E5
:1004E80014F181C315F1166B176B14C180F115C196
:1004F80081F116C182F117C183F18351821109E19B
:10050800200E815DD8A08BEF02F08DEF02F092EF04
:1005180002F01F0EAF6FAE6996EF02F080C1AEF128
:1005280081C1AFF1000180510101AE110001806F5E
:100538000101AF511F0B00018111816F000E0101F4
:10054800846F000E856F000E866F000E876F82C362
:1005580018F183C319F11A6B1B6B18C184F119C107
:1005680085F11AC186F11BC187F18751861109E10E
:10057800200E855DD8A0C3EF02F0C5EF02F0CAEFE8
:1005880002F01F0EBF6FBE69CEEF02F084C1BEF14C
:1005980085C1BFF1BEC124F0070E2416050E256ED5
:1005A800D8902436252ED4EF02F024500001811172
:1005B800816FBEC124F0BFC125F0D8902532243206
:1005C800D89025322432D8902532243224508211F2
:1005D800826FBEC124F0BFC125F00B0E266ED890E5
:1005E80025322432262EF3EF02F02450030B831118
:1005F800836F000E0101886F000E896F000E8A6FED
:10060800000E8B6F84C31CF185C31DF11E6B1F6B1D
:100618001CC188F11DC189F11EC18AF11FC18BF16E
:100628008B518A1109E1200E895DD8A01EEF03F0D5
:1006380020EF03F025EF03F01F0EB16FB06929EF2B
:1006480003F088C1B0F189C1B1F1B0C124F03F0E07
:100658002416D8902436D890243400018311836F4F
:10066800B0C124F0B1C125F0060E266ED89025320F
:100678002432262E3AEF03F024507F0B8411846F26
:10068800000E01018C6F000E8D6F000E8E6F000E34
:100698008F6F86C320F187C321F1226B236B20C1A2
:1006A8008CF121C18DF122C18EF123C18FF18F51BF
:1006B8008E1109E1200E8D5DD8A065EF03F067EF7C
:1006C80003F06CEF03F01F0EC16FC06970EF03F009
:1006D8008CC1C0F18DC1C1F1C0C124F0010E241636
:1006E800000E24B0800E246E245000018411846F03
:1006F800D8900101C131256EC031246E245000010B
:100708008511856FC0C124F0C1C125F0090E266E80
:10071800D89025322432262E8CEF03F024500F0B6C
:100728008611866F000E0101906F000E916F000E0A
:10073800926F000E936F88C324F189C325F1266B4D
:10074800276B24C190F125C191F126C192F127C1EF
:1007580093F19351921109E1100E915DD8A0B7EF72
:1007680003F0B9EF03F0BEEF03F00F0EB36FB269F9
:10077800C2EF03F090C1B2F191C1B3F1B2C124F05C
:100788000F0E24162438F00B00018611866FB2C1B3
:1007980024F0B3C125F0040E266ED89025322432F9
:1007A800262ED1EF03F024508711876F10C31DF058
:1007B80011C31EF0000E206E0A0E1F6EFDEC25F010
:1007C8001DC08AF31EC08BF312C31DF013C31EF0A5
:1007D800000E206E0A0E1F6EFDEC25F01DC08CF376
:1007E8001EC08DF314C31DF015C31EF0000E206E3D
:1007F8000A0E1F6EFDEC25F01DC08EF31EC08FF390
:1008080016C31DF017C31EF0000E206E0A0E1F6ED1
:10081800FDEC25F01DC090F31EC091F3000E000101
:100828008C6F000E8D6F000E8E6F000E8F6F080E8E
:10083800896F000E886F000E8A6F000E946F000E8D
:10084800956F000E966F000E976F000E986F000E52
:10085800996F000E9A6F000E9B6F000E0101946F46
:10086800000E956F000E966F000E976F8AC328F1E1
:100878008BC329F12A6B2B6B28C194F129C195F1FF
:100888002AC196F12BC197F19751961109E1200ED3
:10089800955DD8A052EF04F054EF04F059EF04F03E
:1008A8001F0EB56FB4695DEF04F094C1B4F195C142
:1008B800B5F1000194510101B4110001946F0101D7
:1008C800B5511F0B00019511956F000E0101986F2E
:1008D800000E996F000E9A6F000E9B6F8CC32CF15F
:1008E8008DC32DF12E6B2F6B2CC198F12DC199F171
:1008F8002EC19AF12FC19BF19B519A1109E1200E4B
:10090800995DD8A08AEF04F08CEF04F091EF04F021
:100918001F0EC36FC26995EF04F098C1C2F199C167
:10092800C3F1C2C124F0070E2416050E256ED89017
:100938002436252E9BEF04F0245000019511956F65
:10094800C2C124F0C3C125F0D89025322432D890F2
:1009580025322432D8902532243224509611966FAD
:10096800C2C124F0C3C125F00B0E266ED8902532E3
:100978002432262EBAEF04F02450030B9711976FF8
:10098800000E01019C6F000E9D6F000E9E6F000E01
:100998009F6F8EC330F18FC331F1326B336B30C12F
:1009A8009CF131C19DF132C19EF133C19FF19F513C
:1009B8009E1109E1200E9D5DD8A0E5EF04F0E7EF58
:1009C80004F0ECEF04F01F0EB76FB669F0EF04F017
:1009D8009CC1B6F19DC1B7F1B6C124F03F0E2416F3
:1009E800D8902436D890243400019711976FB6C157
:1009F80024F0B7C125F0060E266ED8902532243291
:100A0800262E01EF05F024507F0B9811986F000EE9
:100A18000101A06F000EA16F000EA26F000EA36F60
:100A280090C334F191C335F1366B376B34C1A0F103
:100A380035C1A1F136C1A2F137C1A3F1A351A21169
:100A480009E1200EA15DD8A02CEF05F02EEF05F0EE
:100A580033EF05F01F0EC56FC46937EF05F0A0C16D
:100A6800C4F1A1C1C5F1C4C124F0010E2416000EC1
:100A780024B0800E246E245000019811986FD890ED
:100A88000101C531256EC431246E2450000199112D
:100A9800996FC4C124F0C5C125F0090E266ED890FF
:100AA80025322432262E53EF05F024500F0B9A11CD
:100AB8009A6F000E0101A46F000EA56F000EA66FBD
:100AC800000EA76F1CC338F11DC339F13A6B3B6B9D
:100AD80038C1A4F139C1A5F13AC1A6F13BC1A7F1CA
:100AE800A751A61109E1100EA55DD8A07EEF05F06B
:100AF80080EF05F085EF05F00F0EB96FB86989EF43
:100B080005F0A4C1B8F1A5C1B9F1B8C124F00F0E20
:100B180024162438F00B00019A119A6FB8C124F0FA
:100B2800B9C125F0040E266ED89025322432262E1F
:100B380098EF05F024509B119B6F080E03013319A1
:100B4800D8A4A9EF05F0ABEF05F0D5EF06F03629EC
:100B58000CE137290AE1382908E13929D8B4B7EF77
:100B680005F0B9EF05F0D5EF06F036053711381165
:100B78003911D8A4C2EF05F0C4EF05F0D5EF06F09F
:100B88003251D8A4CAEF05F0CCEF05F0D5EF06F046
:100B9800000E01014D6F000E4C6F000E4F6F000EDE
:100BA8004E6F000EC76F000EC66FC65103013E118F
:100BB8000101C66FC751C76F3FC324F00F0E24163B
:100BC8002450266E256AC6512510C66FC7512610B7
:100BD800C76FC6C14EF1C7C14FF14EC14CF14FC1ED
:100BE8004DF14CC13CF14DC13DF13CC19CF03DC1C2
:100BF8009DF0000E516F000E506F000E536F000EE7
:100C0800526F000EC96F000EC86F3FC324F0243A1C
:100C18000F0E24160F0E2416C8512410C86FC95180
:100C2800C96F03014051246E256A243A253AF00E13
:100C3800251624500F0B2512F00E24160101C85159
:100C48002410C86FC9512510C96FC8C152F1C9C154
:100C580053F152C150F153C151F150C13EF151C14C
:100C68003FF13EC19EF03FC19FF0000E556F000E50
:100C7800546F000E576F000E566F000ECB6F000EAC
:100C8800CA6FCA51030141110101CA6FCB51CB6F21
:100C980042C324F00F0E24162450266E256ACA512A
:100CA8002510CA6FCB512610CB6FCAC156F1CBC1E4
:100CB80057F156C154F157C155F154C140F155C1CE
:100CC80041F140C1A0F041C1A1F0000E596F000EE2
:100CD800586F000E5B6F000E5A6F000ECD6F000E3E
:100CE800CC6F42C324F0243A0F0E24160F0E24169C
:100CF800CC512410CC6FCD51CD6F03014351246EDC
:100D0800256A243A253AF00E251624500F0B251291
:100D1800F00E24160101CC512410CC6FCD512510B2
:100D2800CD6FCCC15AF1CDC15BF15AC158F15BC14D
:100D380059F158C142F159C143F142C1A2F043C12E
:100D4800A3F0000E5D6F000E5C6F000E5F6F000E6B
:100D58005E6F000ECF6F000ECE6FCE5103014411AF
:100D68000101CE6FCF51CF6F45C324F00F0E24166B
:100D78002450266E256ACE512510CE6FCF512610ED
:100D8800CF6FCEC15EF1CFC15FF15EC15CF15FC1D3
:100D98005DF15CC144F15DC145F144C1A4F045C1B8
:100DA800A5F0080E03011F19D8A4DDEF06F0DFEF48
:100DB80006F09EEF07F022290CE123290AE12429F5
:100DC80008E12529D8B4EBEF06F0EDEF06F09EEF29
:100DD80007F0020E2219231124112511D8A4F7EFC8
:100DE80006F0F9EF06F09EEF07F01E51D8A4FFEFCA
:100DF80006F001EF07F09EEF07F0000E0101616FAA
:100E0800000E606F000E636F000E626F000ED16FF0
:100E1800000ED06FD05103012A110101D06FD151BA
:100E2800D16F2BC324F00F0E24162450266E256A8A
:100E3800D0512510D06FD1512610D16FD0C162F199
:100E4800D1C163F162C160F163C161F160C146F172
:100E580061C147F146C1A6F047C1A7F0000E656F12
:100E6800000E646F000E676F000E666F000ED36F82
:100E7800000ED26F2BC324F0243A0F0E24160F0E47
:100E88002416D2512410D26FD351D36F03012C51A1
:100E9800246E256A243A253AF00E251624500F0BA5
:100EA8002512F00E24160101D2512410D26FD3510D
:100EB8002510D36FD2C166F1D3C167F166C164F161
:100EC80067C165F164C148F165C149F148C1A8F03D
:100ED80049C1A9F0000E696F000E686F000E6B6FB4
:100EE800000E6A6F000ED56F000ED46FD451030147
:100EF8002D110101D46FD551D56F2EC324F00F0EDB
:100F080024162450266E256AD4512510D46FD55145
:100F18002610D56FD4C16AF1D5C16BF16AC168F1E9
:100F28006BC169F168C14AF169C14BF14AC1AAF0C4
:100F38004BC1ABF012000001DC6F75EF0CF0000E36
:100F4800E46F000EE36F5FEF08F0E3C01DF0E4C04C
:100F58001EF0000E206EE60E1F6E79EC28F024C0FD
:100F6800CEF025C0CFF01D500001CE271E50CF2354
:100F7800C00ECE25D96E000ECF21DA6EDECFD0F0AE
:100F8800DDCFD1F0E3C01DF0E4C01EF0000E206EEE
:100F9800E60E1F6E79EC28F024C0D2F025C0D3F0FD
:100FA8001D500001D2271E50D3230E0ED225D96E14
:100FB800000ED321DA6EDF50D46FD56BD051D42711
:100FC800D151D523E3C01DF0E4C01EF0000E206E01
:100FD800E60E1F6E79EC28F024C0D6F025C0D7F0B5
:100FE8001D500001D6271E50D723C00ED625D96E16
:100FF800000ED721DA6ED4C0DEFFD5C0DDFFE3C016
:101008001DF0E4C01EF0000E206EE60E1F6E79EC97
:1010180028F024C0CEF025C0CFF01D500001CE2707
:101028001E50CF23C20ECE25D96E000ECF21DA6E08
:10103800DECFD0F0DDCFD1F0E3C01DF0E4C01EF06C
:10104800000E206EE60E1F6E79EC28F024C0D2F058
:1010580025C0D3F01D500001D2271E50D3230E0EF9
:10106800D225D96E000ED321DA6EDF50D46FD56B3E
:10107800D051D427D151D523E3C01DF0E4C01EF0D0
:10108800000E206EE60E1F6E79EC28F024C0D6F014
:1010980025C0D7F01D500001D6271E50D723C20EF9
:1010A800D625D96E000ED721DA6ED4C0DEFFD5C0A2
:1010B800DDFFE34BE42BDC51CE6FCF6BCE51E35D0C
:1010C800E451800AD06FCF51800AD059D8A06FEF71
:1010D80008F071EF08F0A9EF07F097EF0CF0000E99
:1010E800E66F000EE56F2FEF09F0E5C01DF0E6C0D2
:1010F8001EF0000E206EE60E1F6E79EC28F024C05C
:10110800CEF025C0CFF01D500001CE271E50CF23B2
:10111800C00ECE25D96E000ECF21DA6EDECFD0F00C
:10112800DDCFD1F0E5C01DF0E6C01EF0000E206E48
:10113800E60E1F6E79EC28F024C0D2F025C0D3F05B
:101148001D500001D2271E50D3231D0ED225D96E63
:10115800000ED321DA6EDF50D46FD56BD051D4276F
:10116800D151D523E5C01DF0E6C01EF0000E206E5B
:10117800E60E1F6E79EC28F024C0D6F025C0D7F013
:101188001D500001D6271E50D723C00ED625D96E74
:10119800000ED721DA6ED4C0DEFFD5C0DDFFE5C072
:1011A8001DF0E6C01EF0000E206EE60E1F6E79ECF4
:1011B80028F024C0CEF025C0CFF01D500001CE2766
:1011C8001E50CF23C20ECE25D96E000ECF21DA6E67
:1011D800DECFD0F0DDCFD1F0E5C01DF0E6C01EF0C7
:1011E800000E206EE60E1F6E79EC28F024C0D2F0B7
:1011F80025C0D3F01D500001D2271E50D3231D0E49
:10120800D225D96E000ED321DA6EDF50D46FD56B9C
:10121800D051D427D151D523E5C01DF0E6C01EF02A
:10122800000E206EE60E1F6E79EC28F024C0D6F072
:1012380025C0D7F01D500001D6271E50D723C20E57
:10124800D625D96E000ED721DA6ED4C0DEFFD5C000
:10125800DDFFE54BE62BDC51CE6FCF6BCE51E55D64
:10126800E651800AD06FCF51800AD059D8A03FEFFD
:1012780009F041EF09F079EF08F097EF0CF0000E54
:10128800E86F000EE76F3DEF0AF0000EDE6F000E0C
:10129800DD6F23EF0AF0E7C01DF0E8C01EF0000E76
:1012A800206EE60E1F6E79EC28F024C0CEF025C023
:1012B800CFF01D500001CE271E50CF23C00ECE25E3
:1012C800D96E000ECF21DA6EDECFD0F0DDCFD1F0AF
:1012D800E7C01DF0E8C01EF0000E206EE60E1F6E7F
:1012E80079EC28F024C0D2F025C0D3F01D500001BD
:1012F800D2271E50D323DD51D227DE51D323420EED
:10130800D225D96E000ED321DA6EDF50D46FD56B9B
:10131800D051D427D151D523E7C01DF0E8C01EF025
:10132800000E206EE60E1F6E79EC28F024C0D6F071
:1013380025C0D7F01D500001D6271E50D723C00E58
:10134800D625D96E000ED721DA6ED4C0DEFFD5C0FF
:10135800DDFFDDC0CEF0DEC0CFF0D890CE37CF377E
:10136800E7C01DF0E8C01EF0000E206EE60E1F6EEE
:1013780079EC28F024C0D0F025C0D1F01D50000130
:10138800D0271E50D123CE51D027CF51D123C40E00
:10139800D025D96E000ED121DA6EDECFD2F0DDCFA6
:1013A800D3F0E7C01DF0E8C01EF0000E206EE60E78
:1013B8001F6E79EC28F024C0D4F025C0D5F01D505C
:1013C8000001D4271E50D523DD51D427DE51D52363
:1013D800420ED425D96E000ED521DA6EDF50D66FB5
:1013E800D76BD251D627D351D723DDC0D8F0DEC072
:1013F800D9F0D890D837D937E7C01DF0E8C01EF02B
:10140800000E206EE60E1F6E79EC28F024C0DAF08C
:1014180025C0DBF01D500001DA271E50DB23D85110
:10142800DA27D951DB23C40EDA25D96E000EDB2169
:10143800DA6ED6C0DEFFD7C0DDFFDD4BDE2B20EE37
:10144800DFF02450D9262550DA22DF50CE6FCF6B3B
:10145800CE51DD5DDE51800AD06FCF51800AD05960
:10146800D8A039EF0AF03BEF0AF04FEF09F0E74B4D
:10147800E82BDC51CE6FCF6BCE51E75DE851800A87
:10148800D06FCF51800AD059D8A04DEF0AF04FEF56
:101498000AF049EF09F097EF0CF0000EEA6F000E22
:1014A800E96F4BEF0BF0000EE06F000EDF6F31EFCE
:1014B8000BF0E9C01DF0EAC01EF0000E206EE60E2B
:1014C8001F6E79EC28F024C0CEF025C0CFF01D5057
:1014D8000001CE271E50CF23C00ECE25D96E000E98
:1014E800CF21DA6EDECFD0F0DDCFD1F0E9C01DF02C
:1014F800EAC01EF0000E206EE60E1F6E79EC28F092
:1015080024C0D2F025C0D3F01D500001D2271E50B0
:10151800D323DF51D227E051D3235A0ED225D96ED7
:10152800000ED321DA6EDF50D46FD56BD051D4279B
:10153800D151D523E9C01DF0EAC01EF0000E206E7F
:10154800E60E1F6E79EC28F024C0D6F025C0D7F03F
:101558001D500001D6271E50D723C00ED625D96EA0
:10156800000ED721DA6ED4C0DEFFD5C0DDFFDFC0A4
:10157800CEF0E0C0CFF0D890CE37CF37E9C01DF01D
:10158800EAC01EF0000E206EE60E1F6E79EC28F001
:1015980024C0D0F025C0D1F01D500001D0271E5026
:1015A800D123CE51D027CF51D123D00ED025D96EFB
:1015B800000ED121DA6EDECFD2F0DDCFD3F0E9C054
:1015C8001DF0EAC01EF0000E206EE60E1F6E79ECCC
:1015D80028F024C0D4F025C0D5F01D500001D42730
:1015E8001E50D523DF51D427E051D5235A0ED425D8
:1015F800D96E000ED521DA6EDF50D66FD76BD25177
:10160800D627D351D723DFC0D8F0E0C0D9F0D8907F
:10161800D837D937E9C01DF0EAC01EF0000E206E99
:10162800E60E1F6E79EC28F024C0DAF025C0DBF056
:101638001D500001DA271E50DB23D851DA27D95173
:10164800DB23D00EDA25D96E000EDB21DA6ED6C088
:10165800DEFFD7C0DDFFDF4BE02B20EEE0F02450AB
:10166800D9262550DA22DF50CE6FCF6BCE51DF5D01
:10167800E051800AD06FCF51800AD059D8A047EFE7
:101688000BF049EF0BF05DEF0AF0E94BEA2BDC5168
:10169800CE6FCF6BCE51E95DEA51800AD06FCF5142
:1016A800800AD059D8A05BEF0BF05DEF0BF057EF35
:1016B8000AF097EF0CF0000EEC6F000EEB6F61EF85
:1016C8000CF0000EE26F000EE16F3FEF0CF0EBC084
:1016D8001DF0ECC01EF0000E206EE60E1F6E79ECB9
:1016E80028F024C0CEF025C0CFF01D500001CE2731
:1016F8001E50CF23C00ECE25D96E000ECF21DA6E34
:10170800DECFD0F0DDCFD1F0EBC01DF0ECC01EF085
:10171800000E206EE60E1F6E79EC28F024C0D2F081
:1017280025C0D3F01D500001D2271E50D323E1510C
:10173800D227E251D3236B0ED225D96E000ED321C6
:10174800DA6EDF50D46FD56BD051D427D151D52361
:10175800EBC01DF0ECC01EF0000E206EE60E1F6EF2
:1017680079EC28F024C0D6F025C0D7F01D50000130
:10177800D6271E50D723C00ED625D96E000ED721E6
:10178800DA6ED4C0DEFFD5C0DDFFE1C0CEF0E2C026
:10179800CFF0D890CE37CF37EBC01DF0ECC01EF09D
:1017A800000E206EE60E1F6E79EC28F024C0D0F0F3
:1017B80025C0D1F01D500001D0271E50D123CE5195
:1017C800D027CF51D123D80ED025D96E000ED121E4
:1017D800DA6EDECFD2F0DDCFD3F0EBC01DF0ECC077
:1017E8001EF0000E206EE60E1F6E79EC28F024C065
:1017F800D4F025C0D5F01D500001D4271E50D523A4
:10180800E151D427E251D5236B0ED425D96E000EB1
:10181800D521DA6EDF50D66FD76BD251D627D35188
:10182800D723E1C0D8F0E2C0D9F0D890D837D9375B
:10183800EBC01DF0ECC01EF0000E206EE60E1F6E11
:1018480079EC28F024C0DAF025C0DBF01D50000147
:10185800DA271E50DB23D851DA27D951DB23D80EDB
:10186800DA25D96E000EDB21DA6ED6C0DEFFD7C0CE
:10187800DDFFE14BE22BFF0ECE6FFF0ECF6F20EEA8
:10188800E1F02450D9262550DA22DF50D06FD16BF1
:10189800CE51D027CF51D123D051E15DE251800AFA
:1018A800D26FD151800AD259D8A05DEF0CF05FEF0A
:1018B8000CF06BEF0BF0EB4BEC2BDC51CE6FCF6BDE
:1018C800CE51EB5DEC51800AD06FCF51800AD059D0
:1018D800D8A071EF0CF073EF0CF065EF0BF097EFF9
:1018E8000CF023500001CE6FCF6BCF51000AD8B453
:1018F80080EF0CF097EF0CF0CE51000AD8B4A3EFAC
:1019080007F0010AD8B443EF09F0030AD8B451EF3D
:101918000AF0010AD8B45FEF0BF0070AD8B473EFE6
:1019280008F097EF0CF012001DA09DEF0CF09FEF50
:101938000CF0B0EF0CF020EE9AF01F50D926205092
:10194800DA2210EE9AF01F50E1262050E222E750EA
:101958000F09DF6EBFEF0CF020EE9AF01F50D9266A
:101968002050DA2210EE9AF01F50E1262050E22291
:10197800E750F00BDF6E1DA2C4EF0CF0C6EF0CF0C1
:10198800D7EF0CF020EE9AF01F50D9262050DA221B
:1019980010EE9AF01F50E1262050E222E750F0099D
:1019A800DF6EE6EF0CF020EE9AF01F50D92620509B
:1019B800DA2210EE9AF01F50E1262050E222E7507A
:1019C8000F0BDF6E1DA4EBEF0CF0EDEF0CF0FEEF4C
:1019D8000CF020EE9BF01F50D9262050DA2210EE92
:1019E8009BF01F50E1262050E222E7500F09DF6EDE
:1019F8000DEF0DF020EE9BF01F50D9262050DA2273
:101A080010EE9BF01F50E1262050E222E750F00B29
:101A1800DF6E1DA612EF0DF014EF0DF025EF0DF09F
:101A280020EE9BF01F50D9262050DA2210EE9BF0B2
:101A38001F50E1262050E222E750F009DF6E34EF14
:101A48000DF020EE9BF01F50D9262050DA2210EE20
:101A58009BF01F50E1262050E222E7500F0BDF6E6B
:101A68001DA839EF0DF03BEF0DF04CEF0DF020EE17
:101A78009CF01F50D9262050DA2210EE9CF01F50FF
:101A8800E1262050E222E7500F09DF6E5BEF0DF0F0
:101A980020EE9CF01F50D9262050DA2210EE9CF040
:101AA8001F50E1262050E222E750F00BDF6E1DAAFE
:101AB80060EF0DF062EF0DF073EF0DF020EE9CF08B
:101AC8001F50D9262050DA2210EE9CF01F50E12634
:101AD8002050E222E750F009DF6E82EF0DF020EE91
:101AE8009CF01F50D9262050DA2210EE9CF01F508F
:101AF800E1262050E222E7500F0BDF6E1DAC87EF86
:101B08000DF089EF0DF09AEF0DF020EE9DF01F50CB
:101B1800D9262050DA2210EE9DF01F50E1262050E1
:101B2800E222E7500F09DF6EA9EF0DF020EE9DF0DD
:101B38001F50D9262050DA2210EE9DF01F50E126C2
:101B48002050E222E750F00BDF6E1DAEAEEF0DF035
:101B5800B0EF0DF0C1EF0DF020EE9DF01F50D9262B
:101B68002050DA2210EE9DF01F50E1262050E2228C
:101B7800E750F009DF6ED0EF0DF020EE9DF01F501A
:101B8800D9262050DA2210EE9DF01F50E126205071
:101B9800E222E7500F0BDF6E1EA0D5EF0DF0D7EF56
:101BA8000DF0E8EF0DF020EE9EF01F50D9262050E2
:101BB800DA2210EE9EF01F50E1262050E222E75074
:101BC8000F09DF6EF7EF0DF020EE9EF01F50D926BB
:101BD8002050DA2210EE9EF01F50E1262050E2221B
:101BE800E750F00BDF6E1EA2FCEF0DF0FEEF0DF0DC
:101BF8000FEF0EF020EE9EF01F50D9262050DA226B
:101C080010EE9EF01F50E1262050E222E750F00926
:101C1800DF6E1EEF0EF020EE9EF01F50D9262050EA
:101C2800DA2210EE9EF01F50E1262050E222E75003
:101C38000F0BDF6E1EA423EF0EF025EF0EF036EF2C
:101C48000EF020EE9FF01F50D9262050DA2210EE19
:101C58009FF01F50E1262050E222E7500F09DF6E67
:101C680045EF0EF020EE9FF01F50D9262050DA22C3
:101C780010EE9FF01F50E1262050E222E750F00BB3
:101C8800DF6E1EA64AEF0EF04CEF0EF05DEF0EF081
:101C980020EE9FF01F50D9262050DA2210EE9FF038
:101CA8001F50E1262050E222E750F009DF6E6CEF6A
:101CB8000EF020EE9FF01F50D9262050DA2210EEA9
:101CC8009FF01F50E1262050E222E7500F0BDF6EF5
:101CD8001200000E0001DC6F000EDD6F000EDE6FDB
:101CE800000EDF6F000EDB6F0F0120B77EEF0EF0E6
:101CF80080EF0EF0FEEF0EF020EE01F02250D92614
:101D08002350DA22DECFCEF0DECFCFF0DECFD0F018
:101D1800DECFD1F022C0D9FF23C0DAFFDF500001A7
:101D2800D26FDC0ED36F000ED46FDD0ED56F000EB0
:101D3800D66FDE0ED76F000ED86FDF0ED96F000E8C
:101D4800DA6F22EC1BF0DCC023FFDDC024FFDEC00D
:101D580021FFDFC022FF20EE05F02250D9262350B4
:101D6800DA22DF500F01256F20EE06F02250D92627
:101D78002350DA22DF50266F20EE07F02250D926B2
:101D88002350DA22DF50276F20EE08F02250D926A0
:101D98002350DA22DF50286F20EE09F02250D9268E
:101DA8002350DA22DF50296F20EE0AF02250D9267C
:101DB8002350DA22DF502A6F20EE0BF02250D9266A
:101DC8002350DA22DF502B6F20EE0CF02250D92658
:101DD8002350DA22DF502C6F20EE0DF02250D92646
:101DE8002350DA22DF502D6F2087010E0001DB6FB0
:101DF80002EF10F010B703EF0FF005EF0FF080EFD0
:101E08000FF020EE01F02250D9262350DA22DECF3F
:101E1800CEF0DECFCFF0DECFD0F0DECFD1F022C0D3
:101E2800D9FF23C0DAFFDF500001D26FDC0ED36F79
:101E3800000ED46FDD0ED56F000ED66FDE0ED76F95
:101E4800000ED86FDF0ED96F000EDA6F22EC1BF090
:101E5800DCC013FFDDC014FFDEC011FFDFC012FFBE
:101E680020EE05F02250D9262350DA22DF500F0148
:101E7800156F20EE06F02250D9262350DA22DF50C3
:101E8800166F20EE07F02250D9262350DA22DF50B1
:101E9800176F20EE08F02250D9262350DA22DF509F
:101EA800186F20EE09F02250D9262350DA22DF508D
:101EB800196F20EE0AF02250D9262350DA22DF507B
:101EC8001A6F20EE0BF02250D9262350DA22DF5069
:101ED8001B6F20EE0CF02250D9262350DA22DF5057
:101EE8001C6F20EE0DF02250D9262350DA22DF5045
:101EF8001D6F1087F9EF0EF000B785EF0FF087EF31
:101F08000FF002EF10F020EE01F02250D9262350F6
:101F1800DA22DECFCEF0DECFCFF0DECFD0F0DECFCC
:101F2800D1F022C0D9FF23C0DAFFDF500001D26F01
:101F3800DC0ED36F000ED46FDD0ED56F000ED66F9A
:101F4800DE0ED76F000ED86FDF0ED96F000EDA6F76
:101F580022EC1BF0DCC003FFDDC004FFDEC001FF84
:101F6800DFC002FF20EE05F02250D9262350DA22E6
:101F7800DF500F01056F20EE06F02250D9262350BE
:101F8800DA22DF50066F20EE07F02250D9262350C0
:101F9800DA22DF50076F20EE08F02250D9262350AE
:101FA800DA22DF50086F20EE09F02250D92623509C
:101FB800DA22DF50096F20EE0AF02250D92623508A
:101FC800DA22DF500A6F20EE0BF02250D926235078
:101FD800DA22DF500B6F20EE0CF02250D926235066
:101FE800DA22DF500C6F20EE0DF02250D926235054
:101FF800DA22DF500D6F0087F9EF0EF00001DB5198
:1020080012000101006F000E0101046F0051D8A4F5
:1020180010EF10F012EF10F0B0EF10F0010E016F9A
:102028008CEF10F0EDC023F002C124F003C125F0BD
:102038000101015144EC1FF0000E0101066F000E72
:10204800056F75EF10F020EEBEF0EE51D926EF5176
:10205800DA22DE50DE10D8A434EF10F036EF10F09C
:102068003AEF10F005C109F142EF10F001010551F6
:102078000001ED5DF06FF0050101096F01C1D4F0B9
:1020880002C1D5F003C1D6F001010951E60DEEC039
:10209800F0F0EFC0F1F0F3500001F027F450F12315
:1020A8001E0EF025D76F000EF121D86F01010951DE
:1020B800E60DEEC0F2F0EFC0F3F0F3500001F227A6
:1020C800F450F323420EF225D96F000EF321DA6F94
:1020D8000101055164EC1AF001010425046F054B58
:1020E800062B0001ED51F06FF16BF0510101055D18
:1020F8000651800A0001F26FF151800AF259D8A006
:1021080088EF10F08AEF10F027EF10F00101012B93
:10211800000120EEDFF0EE51D926EF51DA22DF5030
:10212800F06FF16B010EF027000EF1230101015150
:102138000001F26FF36BF051F25DF351800AF46F16
:10214800F151800AF459D8A0ACEF10F0AEEF10F0BE
:1021580016EF10F031EF11F0EDC023F002C124F0BA
:1021680003C125F0005144EC1FF0000E0101086F77
:10217800000E076F1CEF11F020EEBEF0EE51D926CD
:10218800EF51DA22DE50DE10D8A4CDEF10F0CFEFF9
:1021980010F0D3EF10F007C109F1DBEF10F00101E7
:1021A80007510001ED5DF06FF0050101096F00C1F5
:1021B800D4F001010951080DF3CFF0F0F4CFF1F09C
:1021C8000001F051010102250001D56FF151010113
:1021D80003210001D66F01010951E60DEEC0F2F0AE
:1021E800EFC0F3F0F3500001F227F450F3231E0E72
:1021F800F225D76F000EF321D86F01010951E60DC2
:10220800EEC0F4F0EFC0F5F0F3500001F427F450FD
:10221800F523420EF425D96F000EF521DA6F01017E
:10222800075164EC1AF001010425046F074B082BD1
:102238000001ED51F06FF16BF0510101075D08519C
:10224800800A0001F26FF151800AF259D8A02FEFED
:1022580011F031EF11F0C0EF10F0010E236EEEC057
:1022680024F0EFC025F0ED519FEC07F00101045177
:1022780012000101016F000E0101006F0151D8A485
:1022880048EF11F04AEF11F0E7EF11F0010E026F7D
:10229800C3EF11F0EDC023F003C124F004C125F011
:1022A8000101025198EC22F0000E0101066F000EA8
:1022B800056FACEF11F020EEBEF0EE51D926EF51CC
:1022C800DA22DE50DE10D8A46CEF11F06EEF11F0B8
:1022D80072EF11F005C109F17AEF11F00101055112
:1022E8000001ED5DF06FF0050101096F02C1D4F046
:1022F80003C1D5F004C1D6F001010951E60DEEC0C5
:10230800F0F0EFC0F1F0F3500001F027F450F123A2
:10231800480EF025D76F000EF121D86F0101095141
:10232800E60DEEC0F2F0EFC0F3F0F3500001F22733
:10233800F450F3235A0EF225D96F000EF321DA6F09
:102348000101055164EC1AF00101006F054B062BE1
:102358000001ED51F06FF16BF0510101055D06517F
:10236800800A0001F26FF151800AF259D8A0BFEF3C
:1023780011F0C1EF11F05FEF11F00101022B000124
:1023880020EEE0F0EE51D926EF51DA22DF50F06F5F
:10239800F16B010EF027000EF1230101025100013B
:1023A800F26FF36BF051F25DF351800AF46FF15163
:1023B800800AF459D8A0E3EF11F0E5EF11F04EEFE1
:1023C80011F059EF12F0EDC023F003C124F004C15D
:1023D80025F0015198EC22F0000E0101086F000E63
:1023E800076F44EF12F020EEBEF0EE51D926EF5100
:1023F800DA22DE50DE10D8A404EF12F006EF12F055
:102408000AEF12F007C109F112EF12F001010751AA
:102418000001ED5DF06FF0050101096F01C1D4F015
:1024280003C1D5F004C1D6F001010951E60DEEC093
:10243800F0F0EFC0F1F0F3500001F027F450F12371
:10244800480EF025D76F000EF121D86F0101095110
:10245800E60DEEC0F2F0EFC0F3F0F3500001F22702
:10246800F450F3235A0EF225D96F000EF321DA6FD8
:102478000101075164EC1AF00101006F074B082BAA
:102488000001ED51F06FF16BF0510101075D08514A
:10249800800A0001F26FF151800AF259D8A057EF73
:1024A80012F059EF12F0F7EF11F0020E236EEEC0A2
:1024B80024F0EFC025F0ED519FEC07F00101005129
:1024C8001200000E186E60AE6CEF12F06EEF12F094
:1024D8008AEF13F00F0130AF74EF12F076EF12F0BD
:1024E8008AEF13F062A67BEF12F07DEF12F09CEFFB
:1024F80012F014C0D9FF15C0DAFF020EDF6E64CFE8
:1025080001F061CF02F062CF03F0635089EC1CF058
:1025180020EE01F01450D9261550DA2201C0DEFF52
:1025280002C0DEFF03C0DEFF04C0DEFFB5EF12F01D
:1025380014C0D9FF15C0DAFF010EDF6E62CF01F0BB
:102548006150C1EC25F020EE01F01450D926155049
:10255800DA2201C0DEFF02C0DEFF03C0DEFF04C0D6
:10256800DEFF20EE05F01450D9261550DA2265CF8B
:10257800DFFF20EE06F01450D9261550DA2266CF78
:10258800DFFF20EE07F01450D9261550DA2267CF66
:10259800DFFF20EE08F01450D9261550DA2268CF54
:1025A800DFFF20EE09F01450D9261550DA2269CF42
:1025B800DFFF20EE0AF01450D9261550DA226ACF30
:1025C800DFFF20EE0BF01450D9261550DA226BCF1E
:1025D800DFFF20EE0CF01450D9261550DA226CCF0C
:1025E800DFFF20EE0DF01450D9261550DA226DCFFA
:1025F800DFFF609E0F0132A704EF13F006EF13F020
:1026080025EF13F016C0D9FF17C0DAFF020EDF6EF0
:1026180034CF01F031CF02F032CF03F0335189ECDF
:102628001CF020EE01F01650D9261750DA2201C00E
:10263800DEFF02C0DEFF03C0DEFF04C0DEFF3EEFA8
:1026480013F016C0D9FF17C0DAFF010EDF6E32CFC4
:1026580001F03151C1EC25F020EE01F01650D926D9
:102668001750DA2201C0DEFF02C0DEFF03C0DEFF22
:1026780004C0DEFF20EE05F01650D9261750DA22E6
:1026880035CFDFFF20EE06F01650D9261750DA2294
:1026980036CFDFFF20EE07F01650D9261750DA2282
:1026A80037CFDFFF20EE08F01650D9261750DA2270
:1026B80038CFDFFF20EE09F01650D9261750DA225E
:1026C80039CFDFFF20EE0AF01650D9261750DA224C
:1026D8003ACFDFFF20EE0BF01650D9261750DA223A
:1026E8003BCFDFFF20EE0CF01650D9261750DA2228
:1026F8003CCFDFFF20EE0DF01650D9261750DA2216
:102708003DCFDFFF0F01309F020E186E18501200E8
:102718000001D26F000E0001CF6F000ECE6FCE51B8
:102728001F24D96ECF512020DA6EDF50D8B49FEF26
:1027380013F0A1EF13F0D4EF13F0D251E60D1DC042
:1027480021F01EC022F0F3502126F4502222040E5C
:102758002124D96E000E2220DA6ED251E60D1DC05A
:1027680023F01EC024F0F3502326F4502422040E34
:102778002324E16E000E2420E26EE750256ECEC0C1
:1027880026F0010E276E262ACCEF13F0D8902736B4
:10279800262ECAEF13F027502510DF6E06EF14F02F
:1027A800D251E60D1DC021F01EC022F0F3502126A3
:1027B800F4502222040E2124D96E000E2220DA6E53
:1027C800D251E60D1DC023F01EC024F0F35023267D
:1027D800F4502422040E2324E16E000E2420E26E1D
:1027E800E750256ECEC026F0010E276E262AFFEF91
:1027F80013F0D8902736262EFDEF13F02750FF0A46
:102808002514DF6E0001CE4BCF2BCFBF15EF14F090
:10281800CF5109E1080ECE5DD8A015EF14F017EFDF
:1028280014F093EF13F0000ED16F000ED06FD0515B
:102838001F24216ED1512020226E080E2124D96E2A
:10284800000E2220DA6EDF50D8B42DEF14F02FEFEF
:1028580014F062EF14F0D251E60D1DC021F01EC035
:1028680022F0F3502126F4502222050E2124D96E9D
:10287800000E2220DA6ED251E60D1DC023F01EC0D4
:1028880024F0F3502326F4502422050E2324E16E6D
:10289800000E2420E26EE750256ED0C026F0010E0F
:1028A800276E262A5AEF14F0D8902736262E58EF8E
:1028B80014F027502510DF6E94EF14F0D251E60D76
:1028C8001DC021F01EC022F0F3502126F450222210
:1028D800050E2124D96E000E2220DA6ED251E60DA3
:1028E8001DC023F01EC024F0F3502326F4502422E8
:1028F800050E2324E16E000E2420E26EE750256EBB
:10290800D0C026F0010E276E262A8DEF14F0D8903D
:102918002736262E8BEF14F02750FF0A2514DF6E7A
:102928000001D04BD12BD1BFA3EF14F0D15109E155
:10293800040ED05DD8A0A3EF14F0A5EF14F01BEFA0
:1029480014F012000301E66F000E0301E76F0001A7
:10295800EA51D8A4B2EF14F0B4EF14F0BAEF14F0BF
:10296800000EF26F160EF36FBEEF14F0000EF26F4A
:102978001E0EF36FF20E236E000E246E000E256EEF
:10298800020E266E0301E651CAEC18F0000E030190
:10299800EA6FAFEF15F0000120EEBEF0EB51D9263B
:1029A800EC51DA22DE50DE10D8A4DDEF14F0DFEFB0
:1029B80014F0E3EF14F0EAC3E7F3EBEF14F00301CC
:1029C800EA51E65D0001ED6FED050301E76F000ECA
:1029D8000301E96F000EE86FEA51080D000E0001CF
:1029E800ED6F020EEE6FF350ED27F450EE23030166
:1029F800E8510001ED25D96E0301E9510001EE21EE
:102A0800DA6E0301E751E60DEBC0EFF0ECC0F0F031
:102A1800F3500001EF27F450F0230301E8510001BF
:102A2800EF270301E9510001F023A00EEF25E16E25
:102A3800000EF021E26EDFCFE7FF0301E84BE92B40
:102A4800E9BF30EF15F0E95109E1080EE85DD8A0BB
:102A580030EF15F032EF15F0F0EF14F0EA51000105
:102A6800ED6FEE6BD890ED37EE37D890ED37EE3747
:102A7800D890ED37EE37000EED251D6E020EEE21D3
:102A88001E6E060EB0EC24F01DC0E4F31EC0E5F384
:102A98000301EA51080D060EF326000EF422000E7B
:102AA800F324D96E020EF420DA6EDF500001ED6FC8
:102AB800ED51EF6FEE6B0301EA51080D070EF32697
:102AC800000EF422000EF324D96E020EF420DA6E02
:102AD800DF500001F06FF16BEE51F0110301E26F6E
:102AE8000001EF51F1110301E36FE251E41909E12B
:102AF800E351E519D8B483EF15F085EF15F09AEF97
:102B080015F0E751E60DEBC0EDF0ECC0EEF0F35038
:102B18000001ED27F450EE23A80EED25D96E000E26
:102B2800EE21DA6E010EDF6EADEF15F0E751E60D1E
:102B3800EBC0EDF0ECC0EEF0F3500001ED27F450DF
:102B4800EE23A80EED25D96E000EEE21DA6E000EEA
:102B5800DF6E0301EA2BE651EA5DD8A0B6EF15F067
:102B6800B8EF15F0CFEF14F012000001D26F000E8D
:102B78000001DA6F000ED96FB2EF16F0D9C01DF060
:102B8800DAC01EF0000E206EE60E1F6E79EC28F0FB
:102B980023C0CEF024C0CFF01D500001CE271E5018
:102BA800CF23C00ECE25D96E000ECF21DA6E000ECF
:102BB800DE6E000EDD6ED9C01DF0DAC01EF0000E0C
:102BC800206EE60E1F6E79EC28F023C0CEF024C0EC
:102BD800CFF01D500001CE271E50CF23C20ECE25A8
:102BE800D96E000ECF21DA6E000EDE6E000EDD6E9D
:102BF800000ED46F000ED36FD3C0CEF0D4C0CFF088
:102C0800D890CE37CF37D9C01DF0DAC01EF0000EED
:102C1800206EE60E1F6E79EC28F023C0D0F024C099
:102C2800D1F01D500001D0271E50D123CE51D027FE
:102C3800CF51D123C40ED025D96E000ED121DA6E22
:102C4800000EDE6E000EDD6ED34BD42BD4BF36EFF4
:102C580016F0D45109E1060ED35DD8A036EF16F070
:102C680038EF16F000EF16F0000ED66F000ED56F95
:102C7800D5C0CEF0D6C0CFF0D890CE37CF37D9C098
:102C88001DF0DAC01EF0000E206EE60E1F6E79EC05
:102C980028F023C0D0F024C0D1F01D500001D02767
:102CA8001E50D123CE51D027CF51D123D00ED025BD
:102CB800D96E000ED121DA6E000EDE6E000EDD6ECA
:102CC800D54BD62BD6BF72EF16F0D65109E1040EBC
:102CD800D55DD8A072EF16F074EF16F03CEF16F041
:102CE800000ED86F000ED76FD7C0CEF0D8C0CFF087
:102CF800D890CE37CF37D9C01DF0DAC01EF0000EFD
:102D0800206EE60E1F6E79EC28F023C0D0F024C0A8
:102D1800D1F01D500001D0271E50D123CE51D0270D
:102D2800CF51D123D80ED025D96E000ED121DA6E1D
:102D3800000EDE6E000EDD6ED74BD82BD8BFAEEF7F
:102D480016F0D85109E1020ED75DD8A0AEEF16F003
:102D5800B0EF16F078EF16F0D94BDA2BD251CE6FD0
:102D6800CF6BCE51D95DDA51800AD06FCF51800A2E
:102D7800D059D8A0C2EF16F0C4EF16F0C2EF15F084
:102D880012000301E76FFEC0F4F0FFC0F5F0000E7B
:102D98000301E66FF40E236E000E246E000E256EFE
:102DA800020E266EE751CAEC18F0000E0301EA6F16
:102DB800BEEF17F0000120EEBEF0ED51D926EE511E
:102DC800DA22DE50DE10D8A4ECEF16F0EEEF16F0A3
:102DD800F2EF16F0EAC3E6F3FAEF16F00301EA5150
:102DE800E75D0001EF6FEF050301E66F000E0301D9
:102DF800E96F000EE86FEA51080D000E0001EF6F51
:102E0800020EF06FF350EF27F450F0230301E8515E
:102E18000001EF25D96E0301E9510001F021DA6EB6
:102E28000301E651E60DEDC0F1F0EEC0F2F0F3500B
:102E38000001F127F450F2230301E8510001F127C2
:102E48000301E9510001F223060EF125E16E000E9F
:102E5800F221E26EDFCFE7FF0301E84BE92BE9BF80
:102E68003FEF17F0E95109E1080EE85DD8A03FEF00
:102E780017F041EF17F0FFEF16F0EA510001EF6F7E
:102E8800F06BD890EF37F037D890EF37F037D8900D
:102E9800EF37F037000EEF251D6E020EF0211E6E83
:102EA800060EB0EC24F01DC0E4F31EC0E5F30301E8
:102EB800EA51080D060EF326000EF422000EF32444
:102EC800D96E020EF420DA6EDF500001EF6FEF5179
:102ED800F16FF06B0301EA51080D070EF326000E9F
:102EE800F422000EF324D96E020EF420DA6EDF50BD
:102EF8000001F26FF36BF051F2110301E26F000170
:102F0800F151F3110301E36FE251E41909E1E351CF
:102F1800E519D8B492EF17F094EF17F0A9EF17F06E
:102F2800E651E60DEDC0EFF0EEC0F0F0F350000111
:102F3800EF27F450F0230E0EEF25D96E000EF02186
:102F4800DA6E010EDF6EBCEF17F0E651E60DEDC04C
:102F5800EFF0EEC0F0F0F3500001EF27F450F0234B
:102F68000E0EEF25D96E000EF021DA6E000EDF6E20
:102F78000301EA2BE751EA5DD8A0C5EF17F0C7EFC8
:102F880017F0DEEF16F0000E236EEDC024F0EEC051
:102F980025F0E7519FEC07F01200AFEC28F0500E37
:102FA8001D6E4E0E1E6EF0EC28F06C0E1D6E3B0E64
:102FB8001E6EEBEC28F0F28EF28C8CEC28F0000EF2
:102FC8000301ED6F000EEC6F8AB8EDEF17F0F0EF2C
:102FD80017F0010EF1EF17F0000EFF0AEB6FEB3B55
:102FE8008A50EB19EF0BEB198A6E410E0301EB6F58
:102FF800EE0EE82EFED7EB2FFCD700F00301EC4BCA
:10300800ED2BEDBF11EF18F0ED5109E10A0EEC5D63
:10301800D8A011EF18F013EF18F0E8EF17F08A981E
:10302800B9EC23F0D180010E0001BC6F010EBB6F1B
:10303800040028C0AEF029C0AFF00001BC05D8A438
:1030480028EF18F02AEF18F072EF18F0010EBD6F94
:10305800010ED9EC26F0000E0001EC6F040EED6FA6
:10306800010E5AEC23F0000E0001ED6F040EEE6F16
:10307800010EC5EC16F003EC28F0AEEC27F0000EBC
:103088000001ED6F040EEE6F010EC5EC16F04EEC6C
:1030980028F0B8C01DF0B9C01EF0000E1F6E040E57
:1030A800206E98EC0CF0000E0001EC6F000EED6F36
:1030B800040EEE6F010EC4EC20F06EEC27F0000E4B
:1030C8000001EA6F000EEB6F040EEC6F010EA6EC28
:1030D80014F0C1EC1EF0000E0001BD6F3DEC1EF0B7
:1030E80040EC00F077AE7BEF18F07DEF18F07EEF44
:1030F80018F0779EF9EC22F00001AE51285CAC6F15
:10310800AF512958AD6F8DEF18F0060EE82EFED797
:1031180000D0100E0001BA19D8B495EF18F097EF47
:1031280018F0C4EF18F0200EBA19D8B49EEF18F0B2
:10313800A0EF18F0C4EF18F0300EBA19D8B4A7EF02
:1031480018F0A9EF18F0C4EF18F0400EBA19D8B467
:10315800B0EF18F0B2EF18F0C4EF18F0500EBA192B
:10316800D8B4B9EF18F0BBEF18F0C4EF18F0600E40
:10317800BA19D8A4C2EF18F0C4EF18F089EF18F004
:10318800B2EC21F01CEF18F03EEF00F00001E46F04
:10319800080E0001E76F000E276E23C0D9FF24C078
:1031A800DAFFDF50E06F20EE01F02350D9262450DB
:1031B800DA22DF50E16FE00E1D6E000E1E6E020E69
:1031C800B0EC24F01DC0E5F01EC0E6F00001E651A9
:1031D800E26FE5C0E3F0E00E1D6E000E1E6E040EF9
:1031E8001F6E000E206E010E216EE451080DF3CF04
:1031F80022F03BEC21F0000E0001E96F8FEF19F08F
:10320800000EE86FE751D8A40CEF19F00EEF19F093
:1032180010EF19F040EF19F0E951E703F3CFD4F0BC
:10322800F4CFD5F0000ED66F010ED76FE851D62730
:10323800000ED723D451D625D96ED551D721DA6EB1
:10324800E951080D25C0D8F026C0D9F0F350D82789
:10325800F450D923E851D825E16E000ED921E26E49
:10326800DFCFE7FFE82BE751E85DD8A03EEF19F084
:1032780040EF19F010EF19F0E951080D25C0D4F00E
:1032880026C0D5F0F350D427F450D523070ED42503
:10329800D96E000ED521DA6EDF50D66FE951080DD0
:1032A80025C0D7F026C0D8F0F350D727F450D8233C
:1032B800060ED725D96E000ED821DA6EDF50D96FE9
:1032C800D951DB6FDA6BD651DA25DE6F000EDB21C0
:1032D800DF6FE951080DF3CFD4F0F4CFD5F0D45116
:1032E80025241D6ED55126201E6E060EB0EC24F046
:1032F8001DC0DCF01EC0DDF00001DC51DE1909E163
:10330800DD51DF19D8B48BEF19F08DEF19F08EEF7E
:1033180019F02768E92BE451E95DD8A096EF19F078
:1033280098EF19F004EF19F027501200800E6F6E15
:103338006E50E00B800AD8A4A4EF19F0A6EF19F09C
:103348009CEF19F0400E726E200E706E000E0E018A
:103358007D6FFA69FB69F869E30EF96FFE69FF6929
:10336800FC69E30EFD6F030E466F000E476F040EF7
:10337800796F000E7A6F000E7B6F000E7C6F100E57
:10338800716F000E726F000E736F000E746F000E77
:10339800756F000E766F000E776F000E786F000E57
:1033A800E26F000EE36F000EE06F200EE16F000E7B
:1033B800E66F000EE76F000EE46F400EE56F000E3B
:1033C800EA6F000EEB6F000EE86F000EE96F000E5B
:1033D800EE6F000EEF6F000EEC6F000EED6F000E3B
:1033E800F26F000EF36F000EF06F000EF16F000E1B
:1033F800F66F000EF76F000EF46F000EF56F000EFB
:103408004A6F000E4B6F000E486F000E496F000E9A
:103418004E6F000E4F6F000E4C6F000E4D6F000E7A
:10342800526F000E536F000E506F000E516F000E5A
:10343800566F000E576F000E546F000E556F000E3A
:103448005A6F000E5B6F000E586F000E596F000E1A
:103458005E6F000E5F6F000E5C6F000E5D6F000EFA
:10346800626F000E636F000E606F000E616F000EDA
:10347800666F000E676F000E646F000E656F000EBA
:103488006A6F000E6B6F000E686F000E696F6E69D1
:103498006F696C69E30E6D6F000E436F900E446F99
:1034A800820E456F000E6F6E6ECF1DF0E00E1D167A
:1034B800D8A461EF1AF063EF1AF058EF1AF012006F
:1034C8000001E96F060E0001E76F030EEA6F000EB8
:1034D800E86FE951080DF3CFECF0000EEB6FEC51FB
:1034E800D525DB6F000ED621DC6F010EDB25D96EEA
:1034F800000EDC21DA6EDF50DD6FDD51DF6FDE6B31
:10350800EC51D525D96E000ED621DA6EDF50E06F6A
:10351800E051DE25E16F000EDF21E26FFF0ED425BA
:103528001D6E1E6AFF0E1E22EAC01FF0206A79EC8B
:1035380028F00001EB51DB6FDC6B1D50DB271E50C0
:10354800DC23D890DB37DC37DB51D725D96EDC514B
:10355800D821DA6EE1C0DEFFE2C0DDFFEC51020FD8
:10356800EC6FEB2BEA51EB5DD8A0BDEF1AF0BFEF83
:103578001AF073EF1AF0EC51D525D96E000ED6214A
:10358800DA6EDF50DB6FDB51DD6FDC6BEC51D5257C
:10359800DE6F000ED621DF6F010EDE25D96E000E1C
:1035A800DF21DA6EDF50E06FE051DC11E36FDD51AF
:1035B800E46FE951080DF3CFDBF0F4CFDCF0DB5119
:1035C800D5251D6EDC51D6211E6EE751B0EC24F0D6
:1035D8001DC0E5F01EC0E6F00001E551E31909E160
:1035E800E651E419D8B4FBEF1AF0FDEF1AF00FEF2B
:1035F8001BF0010EE86FD451D925DB6F000EDA21DC
:10360800DC6FFF0EDB25D96EFF0EDC21DA6E010EB2
:10361800DF6E1DEF1BF0D451D925DB6F000EDA21C8
:10362800DC6FFF0EDB25D96EFF0EDC21DA6E000E93
:10363800DF6EEC51020FEC6FE8511200020E000130
:10364800D219D8A42AEF1BF02CEF1BF0AFEF1BF018
:10365800D5C0D9FFD6C0DAFFCEC0DFFFCEC01DF07F
:10366800CFC01EF0D0C01FF0D1C020F01EC01DF08A
:103678001FC01EF020C01FF0206A1DC0CEF01EC063
:10368800CFF01FC0D0F020C0D1F0D3C0D9FFD4C034
:10369800DAFFCEC0DFFFCEC01DF0CFC01EF0D0C015
:1036A8001FF0D1C020F01EC01DF01FC01EF020C0AA
:1036B8001FF0206A1DC0CEF01EC0CFF01FC0D0F092
:1036C80020C0D1F0CE51030B216ECEC01DF0CFC06B
:1036D8001EF0D0C01FF0D1C020F0030ED8901D36C8
:1036E8001E361F362036E82E72EF1BF01DC0CEF0B6
:1036F8001EC0CFF01FC0D0F020C0D1F0CE51E00BDB
:103708002124216E2150080F216E2150EB0BD9C0C6
:10371800D9FFDAC0DAFFDF6ECEC01DF0CFC01EF0D1
:10372800D0C01FF0D1C020F01EC01DF01FC01EF079
:1037380020C01FF0206A1DC0CEF01EC0CFF01FC0F1
:10374800D0F020C0D1F0D7C0D9FFD8C0DAFFCEC0A2
:10375800DFFFDCEF1BF0D3C0D9FFD4C0DAFF000EC7
:10376800DF6ED5C0D9FFD6C0DAFF000EDF6ECEC03F
:103778001DF0CFC01EF0D0C01FF0D1C020F0050E44
:10378800D8901D361E361F362036E82EC4EF1BF0A3
:103798001DC0CEF01EC0CFF01FC0D0F020C0D1F0A9
:1037A800D9C0D9FFDAC0DAFFCEC0DFFF90EF1BF037
:1037B80012000001E36F060E0001E86FE351080DE7
:1037C800F350040FE26F23C0D9FF24C0DAFFDF50A3
:1037D800D66F20EE01F02350D9262450DA22DF508C
:1037E800D76FD60E1D6E000E1E6E020EB0EC24F0C2
:1037F8001DC0E6F01EC0E7F00001E751D86FE6C033
:10380800D9F0040EEB6FE3C0EAF0EA51D8A40FEF49
:103818001CF011EF1CF013EF1CF07CEF1CF0000EF5
:10382800E96FE851D8A41BEF1CF01DEF1CF01FEF47
:103838001CF047EF1CF0EA51060D25C0D4F026C055
:10384800D5F0F350D427F450D523E951D427000EEE
:10385800D523FA0ED425D96EFF0ED521DA6ED60EF1
:10386800EB25E16EE26A000EE222DFCFE7FFEB29EB
:10387800EB6FE92BE851E95DD8A045EF1CF047EF65
:103888001CF01FEF1CF0EA51060D25C0D4F026C02D
:10389800D5F0F350D427F450D523FA0ED4251D6E55
:1038A800FF0ED5211E6EE851B0EC24F01DC0E4F0E7
:1038B8001EC0E5F0D60E0001EB25D96EDA6A000EBF
:1038C800DA22E551DF6EEB51D46FD56B010ED427A8
:1038D800000ED523D60ED425D96E000ED521DA6E6A
:1038E800E4C0DFFFEB51020FEB6FEA0709EF1CF0B2
:1038F800FDEC28F0D60E1D6E000E1E6E0001E25182
:1039080082EC25F0FFEC28F01200096E000E106E14
:10391800000E116E000E126E000E136E0350030B94
:103928000E6E0338E842070B0F6E0250056E066AEA
:10393800D89005360636D89005360636D89005361E
:10394800063605C010F006C011F0000E11BEFF0EBD
:10395800126E136E0F501024106E000E1120116E8F
:10396800000E1220126E000E1320136E10C005F008
:1039780011C006F012C007F013C008F0020ED8906C
:103988000536063607360836E82EC3EF1CF005C0A4
:1039980010F006C011F007C012F008C013F00E5066
:1039A8001024106E000E1120116E000E1220126EDF
:1039B800000E1320136E10C006F011C007F012C0DD
:1039C80008F0056A05C010F006C011F007C012F033
:1039D80008C013F009501024106E000E1120116E4B
:1039E800000E1220126E000E1320136E10C006F087
:1039F80011C007F012C008F0056A05C010F006C033
:103A080011F007C012F008C013F001501024106E16
:103A1800000E1120116E000E1220126E000E1320DF
:103A2800136E10C00AF011C00BF012C00CF013C0D6
:103A38000DF00AC001F00BC002F00CC003F00DC07D
:103A480004F012000001CE6F000E0001D06F000ECE
:103A5800CF6FCF511F24D96ED0512020DA6EDF509E
:103A6800D8B439EF1DF03BEF1DF070EF1DF0CE51CB
:103A7800E60D1DC021F01EC022F0F3502126F4509F
:103A88002222050E2124D96E000E2220DA6ECE5194
:103A9800E60D1DC023F01EC024F0F3502326F45079
:103AA8002422050E2324E16E000E2420E26EE75046
:103AB800256ECFC026F0040E2626010E276E262A74
:103AC80068EF1DF0D8902736262E66EF1DF0275098
:103AD8002510DF6EA4EF1DF0CE51E60D1DC021F0BC
:103AE8001EC022F0F3502126F4502222050E212474
:103AF800D96E000E2220DA6ECE51E60D1DC023F0DD
:103B08001EC024F0F3502326F4502422050E23244B
:103B1800E16E000E2420E26EE750256ECFC026F03D
:103B2800040E2626010E276E262A9DEF1DF0D8903A
:103B38002736262E9BEF1DF02750FF0A2514DF6E2F
:103B48000001CF4BD02BD0BFB3EF1DF0D05109E10E
:103B5800040ECF5DD8A0B3EF1DF0B5EF1DF02DEF2B
:103B68001DF01200284A292A28C001F029C002F0B5
:103B7800000E046EC80E036EA7EC26F0015002106A
:103B8800D8A4C9EF1DF0CBEF1DF0E4EF1DF02B50CA
:103B980007E1050E2A5CD8B0D4EF1DF0D6EF1DF072
:103BA800DEEF1DF0000E2B6E000E2A6E010E316E38
:103BB800E4EF1DF0000E316E000E2B6E000E2A6E23
:103BC8003150D8B4EAEF1DF0ECEF1DF010EF1EF005
:103BD80028C001F029C002F0000E046E640E036EC6
:103BE800A7EC26F001040210D8A4FDEF1DF0FFEFAA
:103BF8001DF010EF1EF08AB804EF1EF007EF1EF05C
:103C0800010E08EF1EF0000EFF0A066E063A8A50F3
:103C18000618EF0B06188A6E3150D8A416EF1EF05E
:103C280018EF1EF03CEF1EF028C001F029C002F08A
:103C3800000E046EC80E036EA7EC26F001500210A9
:103C4800D8A429EF1EF02BEF1EF03CEF1EF08AB827
:103C580030EF1EF033EF1EF0010E34EF1EF0000EB1
:103C6800FF0A066E063A8A500618EF0B06188A6E87
:103C78001200030146511E6E1D6A48511D10006F47
:103C880049511E10016F4A511E6E1D6A4C511D107C
:103C9800026F4D511E10036F4E511E6E1D6A50511A
:103CA8001D10046F51511E10056F52511E6E1D6A72
:103CB80054511D10066F55511E10076F56511E6E38
:103CC8001D6A58511D10086F59511E10096F5A511D
:103CD8001E6E1D6A5C511D100A6F5D511E100B6F20
:103CE8005E511E6E1D6A60511D100C6F61511E10D1
:103CF8000D6F62511E6E1D6A64511D100E6F655165
:103D08001E100F6F66511E6E1D6A68511D10106FD0
:103D180069511E10116F6A511E6E1D6A6C511D107B
:103D2800126F6D511E10136F6E511E6E1D6A705109
:103D38001D10146F71511E10156F72511E6E1D6A81
:103D480074511D10166F75511E10176FAE511E6EEF
:103D58001D6AB0511D10186FB1511E10196FB25164
:103D68001E6E1D6AB4511D101A6FB5511E101B6FBF
:103D7800ACC01CF3ADC01DF31200000E246E000E83
:103D8800236ED8902334D96E2434DA6E1E0ED926C9
:103D9800040EDA22DECF1DF0DDCF1EF0FF0E1D1659
:103DA800000E1E1623C01FF024C020F0D8901F3626
:103DB8002036D8901F362036480E1F24D96E030EA1
:103DC8002020DA6E1DC0DEFF1EC0DDFFD890233430
:103DD800D96E2434DA6E1E0ED926040EDA22DECF0E
:103DE8001DF0DDCF1EF01EC01DF01E6A1D501F6E97
:103DF800206A23C021F024C022F0D8902136223630
:103E0800D89021362236460E2124D96E030E222060
:103E1800DA6E1FC0DEFF20C0DDFF234A242A24BE3D
:103E28001FEF1FF0245009E10C0E235CD8A01FEFF0
:103E38001FF021EF1FF0C5EF1EF0040148510301E8
:103E4800B06FB16B24EE48F0DECF1DF0DDCF1EF071
:103E58001EC01DF01E6A1D50AE6FAF6B04014A51A3
:103E68000301B46FB56B24EE4AF0DECF1DF0DDCF51
:103E78001EF01EC01DF01E6A1D50B26FB36B1200FB
:103E88000001DA6F0001DA05D8A44DEF1FF04FEFFB
:103E98001FF055EF1FF0040ED76F000ED66FA0EF7E
:103EA8001FF0020EDA19D8A45CEF1FF05EEF1FF0C6
:103EB80064EF1FF0060ED76F000ED66FA0EF1FF04D
:103EC800030EDA19D8A46BEF1FF06DEF1FF073EF34
:103ED8001FF0080ED76F000ED66FA0EF1FF0040E6C
:103EE800DA19D8A47AEF1FF07CEF1FF082EF1FF0E9
:103EF8000A0ED76F000ED66FA0EF1FF0050EDA1965
:103F0800D8A489EF1FF08BEF1FF091EF1FF0090E77
:103F1800D76F000ED66FA0EF1FF0060EDA19D8A4DF
:103F280098EF1FF09AEF1FF0A0EF1FF00B0ED76F5E
:103F3800000ED66FA0EF1FF0D60E1D6E000E1E6E7F
:103F4800020EB0EC24F01DC0D4F01EC0D5F0000164
:103F5800D551D86FD4C0D9F0FDEC28F0D60E1D6E1F
:103F6800000E1E6E040E1F6E24C020F025C021F026
:103F78002350080DF3CF22F03BEC21F0FFEC28F0A2
:103F880012000001CE6F000E0001D06F000ECF6F3F
:103F9800CF511F24D96ED0512020DA6EDF50D8B40B
:103FA800D8EF1FF0DAEF1FF007EF20F0CE51E60D43
:103FB800F3CF21F0F4CF22F021501D24D96E2250E6
:103FC8001E20DA6ECE51E60DF3CF23F0F4CF24F0A5
:103FD80023501D24E16E24501E20E26EE750256E0A
:103FE800CFC026F0030E2626010E276E262AFFEFE5
:103FF8001FF0D8902736262EFDEF1FF027502510EA
:10400800DF6E33EF20F0CE51E60DF3CF21F0F4CF81
:1040180022F021501D24D96E22501E20DA6ECE5176
:10402800E60DF3CF23F0F4CF24F023501D24E16EE6
:1040380024501E20E26EE750256ECFC026F0030EF6
:104048002626010E276E262A2CEF20F0D890273638
:10405800262E2AEF20F02750FF0A2514DF6E0001D4
:10406800CF4BD02BD0BF42EF20F0D05109E1050E45
:10407800CF5DD8A042EF20F044EF20F0CCEF1FF046
:1040880012000001D06F1FC021F020C022F0040EE2
:10409800236ED89022322132232E4DEF20F021C0FA
:1040A800CEF022C0CFF00001D051E60D1DC021F0A6
:1040B8001EC022F0F3502126F4502222030E2124A0
:1040C800D96E000E2220DA6ECEC023F0CFC024F0C5
:1040D800040E256ED89024322332252E6EEF20F060
:1040E8002350DF6ED051E60D1DC021F01EC022F016
:1040F800F3502126F4502222020E2124D96E000EFC
:104108002220DA6ED051E60D1DC023F01EC024F027
:10411800F3502326F4502422020E2324E16E000ECD
:104128002420E26EE7500F0BDF6ED051E60D1DC064
:1041380021F01EC022F0F3502126F4502222020E54
:104148002124D96E000E2220DA6ED051E60D1DC052
:1041580023F01EC024F0F3502326F4502422020E2C
:104168002324E16E000E2420E26EE750256ECEC0B7
:1041780026F00F0E26162638F00B2510DF6E1200DB
:104188000001F46F000E276E0001EC51D8A4CFEFA8
:1041980020F0D1EF20F0D7EF20F0000EF26F140ED0
:1041A800F36FDBEF20F0000EF26F1C0EF36F000EC2
:1041B800F56F26EF21F020EEBEF0ED51D926EE5135
:1041C800DA22DE50DE10D8A4ECEF20F0EEEF20F07B
:1041D800F2EF20F0F5C0F1F0F7EF20F0F551F45DC3
:1041E800EF6FEF05F16F000E0201006F0001F15152
:1041F800E60DEDC0EFF0EEC0F0F0F350EF27F4500D
:10420800F023020100510001EF27000EF0239A0E5F
:10421800EF25D96E000EF021DA6E000E2724E16E2C
:10422800E26A010EE222DFCFE7FF272A0201002B14
:10423800050E006522EF21F024EF21F0FAEF20F0BF
:104248000001F52BF451F55DD8A02DEF21F02FEFEB
:1042580021F0DFEF20F0F20E236E000E246E000E28
:10426800256E010E266EF451DDEC1BF01200FDECFC
:1042780028F0000E0001D26F6DEF21F0C9509E9614
:10428800C69ED2511D24D96E000E1E20DA6EDF5054
:10429800C96E000ECF6F000ECE6F64EF21F0CE4BCB
:1042A800CF2BF50ECE5D010ECF59D8A05EEF21F0D1
:1042B80060EF21F064EF21F0B24BB32B6BEF21F0EC
:1042C8009EA669EF21F06BEF21F053EF21F09E9647
:1042D800D22B1F50D25DD8A074EF21F076EF21F0D9
:1042E80042EF21F0000ED36FA6EF21F0C9509E9641
:1042F800000EC96E000ED16F000ED06F95EF21F041
:10430800D04BD12BF50ED05D010ED159D8A08FEF2F
:1043180021F091EF21F095EF21F0B24BB32B9CEFF8
:1043280021F09EA69AEF21F09CEF21F084EF21F076
:104338009E96D3512024D96E000E2120DA6EC9CF63
:10434800DFFFD32B2250D35DD8A0ADEF21F0AFEF24
:1043580021F07AEF21F0FFEC28F01200010E0001A5
:10436800BE6F180EBF6F000EC06F000EC16F000E3B
:10437800C26F080EC36F6CC0C4F06DC0C5F06EC0CC
:10438800C6F06FC0C7F070C0C8F071C0C9F072C085
:10439800CAF073C0CBF0BE0E226E000E236E6DEC19
:1043A8000EF02E6E850EE82EFED700F0010E0001ED
:1043B800BE6F190EBF6F000EC06F000EC16F000EEA
:1043C800C26F080EC36F80C0C4F081C0C5F082C040
:1043D800C6F083C0C7F084C0C8F085C0C9F086C0E5
:1043E800CAF087C0CBF0BE0E226E000E236E6DECB5
:1043F8000EF02E6E850EE82EFED700F0010E00019D
:10440800BE6F1A0EBF6F000EC06F000EC16F000E98
:10441800C26F080EC36F94C0C4F095C0C5F096C0B3
:10442800C6F097C0C7F098C0C8F099C0C9F09AC044
:10443800CAF09BC0CBF0BE0E226E000E236E6DEC50
:104448000EF02E6E12000001D06F1FC021F020C0A8
:1044580022F0040E236ED89022322132232E2FEF21
:1044680022F0FF0E21240001CE6FFF0E2220CF6F15
:10447800D051E60D1DC021F01EC022F0F3502126B8
:10448800F4502222010E2124D96E000E2220DA6E69
:10449800CEC0DFFFD051E60D1DC021F01EC022F0B6
:1044A800F3502126F4502222020E2124D96E000E48
:1044B8002220DA6ED051E60D1DC023F01EC024F074
:1044C800F3502326F4502422020E2324E16E000E1A
:1044D8002420E26EE750F00BDF6ED051E60D1DC0D0
:1044E80021F01EC022F0F3502126F4502222020EA1
:1044F8002124D96E000E2220DA6ED051E60D1DC09F
:1045080023F01EC024F0F3502326F4502422020E78
:104518002324E16E000E2420E26EE750256ECF5171
:104528000F0B2510DF6E12000001DA6F0001DA05AB
:10453800D8A4A1EF22F0A3EF22F0A9EF22F00C0EED
:10454800D76F000ED66FD4EF22F0020EDA19D8A476
:10455800B0EF22F0B2EF22F0B8EF22F00E0ED76FD4
:10456800000ED66FD4EF22F0030EDA19D8A4BFEFED
:1045780022F0C1EF22F0C7EF22F00D0ED76F000E28
:10458800D66FD4EF22F0040EDA19D8A4CEEF22F0B9
:10459800D0EF22F0A3EF22F00F0ED76F000ED66FE8
:1045A800D60E1D6E000E1E6E020EB0EC24F01DC05D
:1045B800D4F01EC0D5F00001D551D86FD4C0D9F0C1
:1045C800FDEC28F0D60E1D6E000E1E6E040E1F6E3A
:1045D80024C020F025C021F02350080DF3CF22F08D
:1045E8003BEC21F0FFEC28F012002BEF23F09CC0ED
:1045F800B8F09DC0B9F059EF23F09EC0B8F09FC045
:10460800B9F059EF23F0A0C0B8F0A1C0B9F059EF44
:1046180023F0A2C0B8F0A3C0B9F059EF23F0A4C0AA
:10462800B8F0A5C0B9F059EF23F0A6C0B8F0A7C0FC
:10463800B9F059EF23F0A8C0B8F0A9C0B9F059EF04
:1046480023F0AAC0B8F0ABC0B9F059EF23F0080EB8
:104658001D6E000E1E6E1E50000AD8B436EF23F0F1
:1046680059EF23F01D50010AD8B4FBEF22F0030ADA
:10467800D8B401EF23F0010AD8B407EF23F0070AF2
:10468800D8B40DEF23F0010AD8B413EF23F0030ACE
:10469800D8B419EF23F0010AD8B41FEF23F00F0A9A
:1046A800D8B425EF23F059EF23F012000001F36F7F
:1046B8003EC0F0F03FC0F1F0000E276E000E000182
:1046C800F46FA4EF23F020EEBEF0EC51D926ED51A3
:1046D800DA22DE50DE10D8A474EF23F076EF23F050
:1046E8007AEF23F0F4C0F2F07FEF23F0F451F35D9A
:1046F800EE6FEE05F26F000EF56FF251E60DECC0AD
:10470800EEF0EDC0EFF0F350EE27F450EF23F55143
:10471800EE25D96E000EEF21DA6E000E2724E16E29
:10472800E26A010EE222DFCFE7FF272AF52B050E0A
:10473800F565A1EF23F0A3EF23F081EF23F0F42B2D
:10474800F351F45DD8A0ABEF23F0ADEF23F067EFA2
:1047580023F0F00E236E000E246E000E256E010E5F
:10476800266EF351DDEC1BF01200000E1D6E040ED8
:104778001E6E010E71EC26F0000E236E040E246EE0
:10478800010EB9EC15F0060E0401DE6F0C0EDC6F9D
:10479800040EDF6F020EE06F030EE16F040EDD6F93
:1047A800000E0201006F000E0001D36F040ED46FDB
:1047B800010ED56F000ED66FEE0ED76F030ED86FB1
:1047C800D20ED96F030EDA6FDE0EDB6F030EDC6FCD
:1047D800000EDE6F000EDD6FC30EE06F500EDF6F50
:1047E800020100510EEC24F00201002B0051D8B454
:1047F80000EF24F002EF24F0D7EF23F0010ED9ECFC
:1048080026F0000E0001EC6F040EED6F010E5AEC5D
:1048180023F012000001E16FD3C01DF0D4C01EF0D8
:10482800D5C01FF00001E151FEEC24F0D3C01DF00B
:10483800D4C01EF0D6C01FF00001E15140EC25F0B5
:10484800D3C01DF0D4C01EF0D7C01FF0D8C020F0D0
:104858000001E151C5EC1FF0D3C01DF0D4C01EF01B
:10486800D9C01FF0DAC020F00001E1518CEC13F040
:10487800D3C01DF0D4C01EF0DBC01FF0DCC020F098
:104888000001E15126EC1DF0D3C01DF0D4C01EF08C
:10489800DDC01FF0DEC020F00001E15127EC22F05E
:1048A800D3C01DF0D4C01EF0DFC01FF0E0C020F060
:1048B8000001E15145EC20F01200F00EF66E510EA9
:1048C800F76E000EF86E03EEEEF010EE05F009003C
:1048D800F5CFEEFFE550E150FAE1CC0EF66E510E41
:1048E800F76E000EF86E00EEF6F010EE0AF0090012
:1048F800F5CFEEFFE550E150FAE1B40EF66E510E39
:10490800F76E000EF86E00EE34F010EE0CF00900B1
:10491800F5CFEEFFE550E150FAE104EE00F0E60EC7
:10492800EE6AE806FDE103EE00F0E20EEE6AE80644
:10493800FDE100EE60F06E0EEE6AE806FDE100EEC5
:1049480028F00C0EEE6AE806FDE143904392000E53
:10495800F86E0001D1EF17F00001CE6F000E0001D4
:10496800D36F100ED26F000ED16FEFEF24F0D2C0CC
:104978001FF0D3C020F0070E216ED89020321F32CE
:10498800212EC1EF24F0D1511D24D96E000E1E2016
:10499800DA6EDF50226E22501F1A000E201A1F50A6
:1049A800CF6FD06BD890CF35F66ED035F76EF70E47
:1049B800F6267D0EF7220900F5CF1FF00900F5CF86
:1049C80020F0D251226E216A1F502118D26F205038
:1049D8002218D36FD12BCE51D15DD8A0F6EF24F099
:1049E800F8EF24F0BBEF24F0D890D2351D6ED33504
:1049F8001E6E1200246E1F50D8B405EF25F007EF85
:104A080025F024EF25F02450E60DF3CF20F0F4CF65
:104A180021F020501D24D96E21501E20DA6E24501A
:104A2800E60DF3CF22F0F4CF23F022501D24E16EDF
:104A380023501E20E26EE7500409DF6E3FEF25F099
:104A48002450E60DF3CF20F0F4CF21F020501D24A0
:104A5800D96E21501E20DA6E2450E60DF3CF22F0D5
:104A6800F4CF23F022501D24E16E23501E20E26E65
:104A7800E750FB0BDF6E1200246E1F50D8B447EFCF
:104A880025F049EF25F066EF25F02450E60DF3CF29
:104A980020F0F4CF21F020501D24D96E21501E2083
:104AA800DA6E2450E60DF3CF22F0F4CF23F0225033
:104AB8001D24E16E23501E20E26EE7500109DF6ECF
:104AC80081EF25F02450E60DF3CF20F0F4CF21F04C
:104AD80020501D24D96E21501E20DA6E2450E60D78
:104AE800F3CF22F0F4CF23F022501D24E16E23509F
:104AF8001E20E26EE750FE0BDF6E12001F6EFDEC0B
:104B080028F0000E226EB5EF25F0C9509E96C69E7D
:104B180022501D24D96E000E1E20DA6EDF50C96E99
:104B2800000E216E000E206EACEF25F0204A212ADF
:104B3800F50E205C010E2158D8A0A5EF25F0A7EFAF
:104B480025F0ACEF25F00001B24BB32BB3EF25F005
:104B58009EA6B1EF25F0B3EF25F09AEF25F09E96CB
:104B6800222A1F50225CD8A0BCEF25F0BEEF25F00A
:104B780089EF25F0FFEC28F01200076E0750056E4C
:104B8800066AD89005360636D89005360636D89087
:104B98000536063605C00CF006C00DF0000E0DBE39
:104BA800FF0E0E6E0F6E01C005F0050E066ED89052
:104BB8000532062EDBEF25F005500C240C6E000E96
:104BC8000D200D6E000E0E200E6E000E0F200F6EC3
:104BD8000CC008F00DC009F00EC00AF00FC00BF0B1
:104BE80008C001F009C002F00AC003F00BC004F0CD
:104BF8001200000E236E000E226E1F502010D8B433
:104C080008EF26F00AEF26F032EF26F0010E216EAB
:104C180012EF26F0D8901F362036212A20AE17EF43
:104C280026F019EF26F00EEF26F0D890223623361C
:104C38001F501D5C20501E58D8A025EF26F027EFE6
:104C480026F02CEF26F01F501D5E20501E5A2280A1
:104C5800D89020321F32212E19EF26F022C01DF0E5
:104C680023C01EF01200CAC33EF3CBC33FF3CCC32C
:104C780040F3CDC341F3CEC342F3CFC343F3D0C314
:104C880044F3D1C345F3010E0301366F000E376FAD
:104C9800000E386F000E396F080E336F000E326F3A
:104CA800BCC32AF3BDC32BF3BEC32CF3BFC32DF380
:104CB800C0C32EF3C1C32FF3C2C330F3C3C331F350
:104CC800020E226F000E236F000E246F000E256F58
:104CD800080E1F6F000E1E6F1200216E000E226E4E
:104CE8009DEF26F0000E246E000E236E2250E60D76
:104CF8001DC01FF01EC020F0F3501F26F4502022C4
:104D080023501F24D96E24502020DA6E000EDF6E47
:104D1800234A242A24BE9AEF26F0245009E1060EDD
:104D2800235CD8A09AEF26F09CEF26F07AEF26F0C5
:104D3800222A2150225CD8A0A4EF26F0A6EF26F064
:104D480076EF26F0120003500410D8B4AEEF26F028
:104D5800B0EF26F0D4EF26F0010E056EB8EF26F07E
:104D6800D89003360436052A04AEBDEF26F0BFEF0F
:104D780026F0B4EF26F00350015C04500258D8A086
:104D8800C8EF26F0CAEF26F0CEEF26F00350015EFA
:104D98000450025AD89004320332052EBFEF26F091
:104DA80001C001F002C002F01200206E000E226E57
:104DB800000E216EEEEF26F0FDEC28F0C80E00D0B4
:104DC800E82EFDD7FFEC28F0C80E00D0E82EFDD75E
:104DD800214A222A20501D6E1E6A1D50215C225035
:104DE800800A1F6E1E50800A1F58D8A0FEEF26F0BA
:104DF80000EF27F0E0EF26F0120023C0D9FF24C00F
:104E0800DAFFDF500001D46F20EE01F02350D926DD
:104E18002450DA22DF50D56FD40E1D6E000E1E6EA0
:104E2800020EB0EC24F01DC0D8F01EC0D9F000016D
:104E3800D951D66FD8C0D7F0D40E1D6E000E1E6E95
:104E4800040E82EC25F012000001BA2BC40E146E79
:104E5800030E156EB60E166E030E176E65EC12F085
:104E68002D6E020E2D18D8A43CEF27F03EEF27F048
:104E78004BEF27F0000E026E080E016E37EC26F09D
:104E88002A4A2B2A000E0001BA6FF5EC28F012000E
:104E98000001DC6F0001D890DC31010BDD6FDD51C2
:104EA800020FDA6FDCC027F0010E2716000E27B0BC
:104EB800800E276E2750DD6F2550100DF350DD252D
:104EC8002624600FDB6FDA0E236E000E246E01ECD1
:104ED80027F01200000E0001D46F190ED56FD40E02
:104EE8001D6E000E1E6E020EB0EC24F01DC0D8F030
:104EF8001EC0D9F00001D951D66FD8C0D7F0FDEC4B
:104F080028F0D40E1D6E000E1E6E040E82EC25F0E5
:104F1800FFEC28F012000001DE6F0001D890DE31AE
:104F2800010BDF6FDF51040FDA6FDEC026F0010ED0
:104F38002616000E26B0800E266E2650DF6FDF5133
:104F48002524600FDB6FDA0E236E000E246E01EC51
:104F580027F0120004014205D8A4B5EF27F0B7EFF7
:104F680027F0CAEF27F04305D8A4BDEF27F0BFEF1D
:104F780027F0CAEF27F04405D8A4C5EF27F0C7EFFC
:104F880027F0CAEF27F00001B44BB52B1200000E32
:104F9800AA6EF60ECF6E3C0ECE6E9E90CE50CFCF40
:104FA8001FF0206A1FC020F01F6A1F10406E20509B
:104FB800416E9D80020E1D6E520E1E6EEBEC28F0A7
:104FC800210ECD6E1200000E8D6E000E8C6E000E3E
:104FD800896E040E8A6E000E8B6E070E966E2F0E6B
:104FE800926EEF0E936E970E946EFE0E956E0F01F5
:104FF8005D69750E5C6F000E5B6FF18E1200000E1E
:10500800256E000E266E020E4CEC27F0030E0101F1
:105018000A6F970EE82EFED70A2FFCD700D0010E94
:105028000001ED6F000EEE6F040EEF6F000E05EC41
:1050380010F012000301F351F411D8B426EF28F050
:1050480028EF28F035EF28F002D835EF28F00500D2
:10505800FA6EF351FD6EF451FE6EF850FF6EFA5081
:10506800120012000301F551F611D8B43EEF28F0F2
:1050780040EF28F04DEF28F002D84DEF28F005005A
:10508800FA6EF551FD6EF651FE6EF850FF6EFA504D
:1050980012001200000E256E020E8FEC27F0030E90
:1050A800276E980EE82EFED7272EFCD7010E00019A
:1050B800ED6F000EEE6F040EEF6F000E3DEC11F079
:1050C8001200CDA46AEF28F06CEF28F074EF28F0F6
:1050D800CD900250CF6E01C0CEFFCD8078EF28F082
:1050E8000250CF6E01C0CEFF12001D501F02F3CF39
:1050F80021F0F4CF22F01D502002F35022261E503A
:105108001F02F350222621C01DF022C01EF01200FB
:10511800C6BA91EF28F093EF28F09DEF28F0C00E63
:10512800C76E220EC66E000EC56E010EC86E94962E
:10513800C68A1200000ED76EE10ED66EE10E426EE0
:10514800F294F28A040E1D6E520E1E6EF0EC28F0D8
:10515800D50ED56E1200FBEC28F0C8EC28F0E7EC71
:1051680027F0D1EC28F0CBEC27F09EEC28F09AEC55
:1051780019F012009E9040C001F041C002F065ECA9
:1051880028F01EEC28F01200C00EC76E220EC66E64
:10519800010EC86E9496C69A1200600ED36E000E69
:1051A800D26E000E9B6E000E9A6E12000713071245
:1051B8000711002600240001F29442C0D6FF36EC05
:1051C80028F01200072207210018071500021DC049
:1051D800F3F31EC0F4F312001DC0F5F31EC0F6F37E
:0D51E800120042C0D6FF12000101010101BA
:1051F600D09E12008C9012008C80120012001200B9
:107DF60000000099C5ABCE320BCFD8561D6416FDD8
:107E0600D307F49E31AC3A35FFC82C51E963E2FA48
:107E16002797AD0E683C63A5A65875C1B0F3BB6A3B
:107E26007E9059099C3B97A2525F81C644F44F6DE0
:107E36008A2E5BB79E85951C50E18378464A4DD3C2
:107E46008829AFB06A82611BA4E6777FB24DB9D4A8
:107E56007CB9F6203312388BFD762EEFEBDDE0444D
:107E660025BE0227C715CC8C0971DAE81FDA144340
:107E7600D1C5F35C366E3DF7F80A2B93EEA1E538D3
:107E860020C2075BC269C9F00C0DDF941AA6113F28
:107E9600D4525ECB9BF99060559D8604433648AF1D
:107EA6008D55AACC6FFE6467A19A7203B731BCA840
:107EB60079EBA8726D4066D9A32470BDB58FBE1646
:107EC6007BEC5C75994792DE572384BA41884A1148
:107ED6008F7C05E5C0D7CB4E0EB3DD2A181813816B
:107EE600D67BF1E234D03F49FAB4292DEC1FE78660
:107EF6002213A28A67B86C21A9DC7A45BF77B4EE53
:107F06007114568D93BF98265DDB8E424B7040E907
:107F160085840F1DCA2FC1B6044BD7D212E019793A
:107F2600DC83FB1A3E2835B1F04C23D5E6E7ED7E1F
:107F3600283DF9A43C96370FF2F2216BE459EFC0C5
:107F46002A3A0DA3C891C30806F5D56C105E1BC767
:107F5600DEAA543391019A985F658CFC49CE42574C
:107F660087ADA03465066E9FAB6278FBBDC9B6507F
:107F760073D6514F947D9FE45A1989804CB2472B92
:107F860082D1A548607A6BE3AE1E7D87B8B5B32C67
:107F96007641FCD839EA3273F78E2417E125EABC1C
:107FA6002F4608DFCDEDC6740389D01015221EBBFF
:107FB600DBF80A61CF53C4CA0137D2AE179C1C0541
:107FC600D9FFFE663B5430CDF53026A9E39BE80287
:107FD6002D6FA7F662C4695DACA07F39BA0BB1926A
:107FE600746853F196C39D5A58A78B3E4E0C45951F
:097FF6008002C00100CC00010072
:020000040020DA
:08000000FFFFFFFFFFFFFFFF00
:020000040030CA
:0E00000015087F22FF8891FF0FC00FE00F4010
:00000001FF
